:100000000C9434000C9451000C9451000C94630136
:100010000C9451000C9451000C9451000C9451001C
:100020000C9451000C94C7010C9451000C94510095
:100030000C9451000C9451000C9451000C945100FC
:100040000C9481010C9451000C9451000C945100BB
:100050000C9451000C94FF010C9451000C9451002D
:100060000C9451000C94510011241FBECFEFD8E026
:10007000DEBFCDBF11E0A0E0B1E0EAE6F4E002C0EF
:1000800005900D92A230B107D9F721E0A2E0B1E0CE
:1000900001C01D92AD30B207E1F70E94BA000C9486
:1000A00033020C9400008AB182608AB98AB18E7FD3
:1000B0008AB91092C00088E98093C10086E08093DD
:1000C000C20087E690E09093C5008093C400089535
:1000D0009091C00095FFFCCF8093C6000895F894DE
:1000E000E1E6F0E08081806880838081807F80838A
:1000F00084B1887F84B985B1876085B90E94530037
:10010000ECE7F0E0108280818064808380818062EF
:100110008083808186608083EAE7F0E010828081BE
:10012000886080838081876080838081806880830D
:1001300080818064808314BC85B5856085BDEEE6D2
:10014000F0E080818E7F80831092B000E1EBF0E0E0
:10015000808187608083E0E7F0E080818E7F80830C
:1001600081E080936800EBE6F0E080818760808327
:10017000789408950E946F0080910A01882369F0A5
:1001800010920A0180E30E9468008AE00E946800E1
:10019000E0E7F0E08081816080838091090188231D
:1001A00069F01092090181E30E9468008AE00E94D0
:1001B0006800E0E7F0E08081816080838091080141
:1001C000882369F01092080186E30E9468008AE0A3
:1001D0000E946800E0E7F0E0808181608083809188
:1001E0000601813570F48091030181110AC082E318
:1001F0000E9468008AE00E94680081E08093030109
:1002000026C080910601843B70F08091030181112A
:100210000AC083E30E9468008AE00E94680081E0CF
:100220008093030114C080910601813580F0809194
:100230000601843B60F480910301882341F087E349
:100240000E9468008AE00E94680010920301809179
:100250000501813570F48091020181110AC084E3A7
:100260000E9468008AE00E94680081E08093020199
:1002700083CF80910501843B70F080910201811150
:100280000AC085E30E9468008AE00E94680081E05D
:100290008093020171CF80910501813508F46CCF04
:1002A00080910501843B08F067CF8091020188238B
:1002B00009F462CF87E30E9468008AE00E94680028
:1002C0001092020159CF1F920F920FB60F92112474
:1002D0008F93EF93FF93EEE6F0E08081816080835F
:1002E000EBE6F0E08081887F808383B18770809324
:1002F0000C01FF91EF918F910F900FBE0F901F9007
:1003000018951F920F920FB60F9211248F939F93FF
:10031000EF93FF93809107018F5F80930701809196
:100320000701823059F51092070183B187708093DD
:100330000B0190910C0180910B01981315C08091D5
:100340000C0180FD03C081E080930A0180910C01C3
:1003500081FD03C081E08093090180910C0182FD41
:1003600003C081E080930801EBE6F0E080818760C4
:100370008083EEE6F0E080818E7F8083FF91EF91B5
:100380009F918F910F900FBE0F901F9018951F9205
:100390000F920FB60F9211242F933F934F935F93B9
:1003A0006F937F938F939F93AF93BF93EF93FF933D
:1003B000809104018F5F80930401809104018A3051
:1003C00069F41092040187E30E9468008AE00E94A9
:1003D0006800E0E7F0E080818E7F8083FF91EF91FD
:1003E000BF91AF919F918F917F916F915F914F914D
:1003F0003F912F910F900FBE0F901F9018951F9255
:100400000F920FB60F9211248F93EF93FF93809169
:100410000001863071F48091790080930601ECE749
:10042000F0E08081807F8760808387E08093000197
:100430000DC08091790080930501ECE7F0E08081A8
:10044000807F8660808386E080930001EAE7F0E0A9
:10045000808180648083FF91EF918F910F900FBE18
:0A0460000F901F901895F894FFCF3D
:02046A0006008A
:00000001FF
